{
  "contractName": "ERC677BridgeToken",
  "abi": [
    {
      "constant": true,
      "inputs": [],
      "name": "mintingFinished",
      "outputs": [
        {
          "name": "",
          "type": "bool"
        }
      ],
      "payable": false,
      "stateMutability": "view",
      "type": "function"
    },
    {
      "constant": true,
      "inputs": [],
      "name": "name",
      "outputs": [
        {
          "name": "",
          "type": "string"
        }
      ],
      "payable": false,
      "stateMutability": "view",
      "type": "function"
    },
    {
      "constant": false,
      "inputs": [
        {
          "name": "_spender",
          "type": "address"
        },
        {
          "name": "_value",
          "type": "uint256"
        }
      ],
      "name": "approve",
      "outputs": [
        {
          "name": "",
          "type": "bool"
        }
      ],
      "payable": false,
      "stateMutability": "nonpayable",
      "type": "function"
    },
    {
      "constant": true,
      "inputs": [],
      "name": "totalSupply",
      "outputs": [
        {
          "name": "",
          "type": "uint256"
        }
      ],
      "payable": false,
      "stateMutability": "view",
      "type": "function"
    },
    {
      "constant": false,
      "inputs": [
        {
          "name": "_from",
          "type": "address"
        },
        {
          "name": "_to",
          "type": "address"
        },
        {
          "name": "_value",
          "type": "uint256"
        }
      ],
      "name": "transferFrom",
      "outputs": [
        {
          "name": "",
          "type": "bool"
        }
      ],
      "payable": false,
      "stateMutability": "nonpayable",
      "type": "function"
    },
    {
      "constant": true,
      "inputs": [],
      "name": "decimals",
      "outputs": [
        {
          "name": "",
          "type": "uint8"
        }
      ],
      "payable": false,
      "stateMutability": "view",
      "type": "function"
    },
    {
      "constant": false,
      "inputs": [
        {
          "name": "_value",
          "type": "uint256"
        }
      ],
      "name": "burn",
      "outputs": [],
      "payable": false,
      "stateMutability": "nonpayable",
      "type": "function"
    },
    {
      "constant": false,
      "inputs": [
        {
          "name": "_spender",
          "type": "address"
        },
        {
          "name": "_subtractedValue",
          "type": "uint256"
        }
      ],
      "name": "decreaseApproval",
      "outputs": [
        {
          "name": "",
          "type": "bool"
        }
      ],
      "payable": false,
      "stateMutability": "nonpayable",
      "type": "function"
    },
    {
      "constant": true,
      "inputs": [
        {
          "name": "_owner",
          "type": "address"
        }
      ],
      "name": "balanceOf",
      "outputs": [
        {
          "name": "",
          "type": "uint256"
        }
      ],
      "payable": false,
      "stateMutability": "view",
      "type": "function"
    },
    {
      "constant": true,
      "inputs": [],
      "name": "owner",
      "outputs": [
        {
          "name": "",
          "type": "address"
        }
      ],
      "payable": false,
      "stateMutability": "view",
      "type": "function"
    },
    {
      "constant": true,
      "inputs": [],
      "name": "symbol",
      "outputs": [
        {
          "name": "",
          "type": "string"
        }
      ],
      "payable": false,
      "stateMutability": "view",
      "type": "function"
    },
    {
      "constant": true,
      "inputs": [],
      "name": "bridgeContract",
      "outputs": [
        {
          "name": "",
          "type": "address"
        }
      ],
      "payable": false,
      "stateMutability": "view",
      "type": "function"
    },
    {
      "constant": false,
      "inputs": [
        {
          "name": "_spender",
          "type": "address"
        },
        {
          "name": "_addedValue",
          "type": "uint256"
        }
      ],
      "name": "increaseApproval",
      "outputs": [
        {
          "name": "",
          "type": "bool"
        }
      ],
      "payable": false,
      "stateMutability": "nonpayable",
      "type": "function"
    },
    {
      "constant": true,
      "inputs": [
        {
          "name": "_owner",
          "type": "address"
        },
        {
          "name": "_spender",
          "type": "address"
        }
      ],
      "name": "allowance",
      "outputs": [
        {
          "name": "",
          "type": "uint256"
        }
      ],
      "payable": false,
      "stateMutability": "view",
      "type": "function"
    },
    {
      "constant": false,
      "inputs": [
        {
          "name": "_newOwner",
          "type": "address"
        }
      ],
      "name": "transferOwnership",
      "outputs": [],
      "payable": false,
      "stateMutability": "nonpayable",
      "type": "function"
    },
    {
      "inputs": [
        {
          "name": "_name",
          "type": "string"
        },
        {
          "name": "_symbol",
          "type": "string"
        },
        {
          "name": "_decimals",
          "type": "uint8"
        }
      ],
      "payable": false,
      "stateMutability": "nonpayable",
      "type": "constructor"
    },
    {
      "payable": true,
      "stateMutability": "payable",
      "type": "fallback"
    },
    {
      "anonymous": false,
      "inputs": [
        {
          "indexed": false,
          "name": "from",
          "type": "address"
        },
        {
          "indexed": false,
          "name": "to",
          "type": "address"
        },
        {
          "indexed": false,
          "name": "value",
          "type": "uint256"
        }
      ],
      "name": "ContractFallbackCallFailed",
      "type": "event"
    },
    {
      "anonymous": false,
      "inputs": [
        {
          "indexed": true,
          "name": "to",
          "type": "address"
        },
        {
          "indexed": false,
          "name": "amount",
          "type": "uint256"
        }
      ],
      "name": "Mint",
      "type": "event"
    },
    {
      "anonymous": false,
      "inputs": [],
      "name": "MintFinished",
      "type": "event"
    },
    {
      "anonymous": false,
      "inputs": [
        {
          "indexed": true,
          "name": "previousOwner",
          "type": "address"
        }
      ],
      "name": "OwnershipRenounced",
      "type": "event"
    },
    {
      "anonymous": false,
      "inputs": [
        {
          "indexed": true,
          "name": "previousOwner",
          "type": "address"
        },
        {
          "indexed": true,
          "name": "newOwner",
          "type": "address"
        }
      ],
      "name": "OwnershipTransferred",
      "type": "event"
    },
    {
      "anonymous": false,
      "inputs": [
        {
          "indexed": true,
          "name": "burner",
          "type": "address"
        },
        {
          "indexed": false,
          "name": "value",
          "type": "uint256"
        }
      ],
      "name": "Burn",
      "type": "event"
    },
    {
      "anonymous": false,
      "inputs": [
        {
          "indexed": true,
          "name": "from",
          "type": "address"
        },
        {
          "indexed": true,
          "name": "to",
          "type": "address"
        },
        {
          "indexed": false,
          "name": "value",
          "type": "uint256"
        },
        {
          "indexed": false,
          "name": "data",
          "type": "bytes"
        }
      ],
      "name": "Transfer",
      "type": "event"
    },
    {
      "anonymous": false,
      "inputs": [
        {
          "indexed": true,
          "name": "owner",
          "type": "address"
        },
        {
          "indexed": true,
          "name": "spender",
          "type": "address"
        },
        {
          "indexed": false,
          "name": "value",
          "type": "uint256"
        }
      ],
      "name": "Approval",
      "type": "event"
    },
    {
      "anonymous": false,
      "inputs": [
        {
          "indexed": true,
          "name": "from",
          "type": "address"
        },
        {
          "indexed": true,
          "name": "to",
          "type": "address"
        },
        {
          "indexed": false,
          "name": "value",
          "type": "uint256"
        }
      ],
      "name": "Transfer",
      "type": "event"
    },
    {
      "constant": false,
      "inputs": [
        {
          "name": "_periodLength",
          "type": "uint256"
        },
        {
          "name": "_maxPeriodFunds",
          "type": "uint256"
        },
        {
          "name": "_threshold",
          "type": "uint256"
        },
        {
          "name": "_amount",
          "type": "uint256"
        }
      ],
      "name": "setFundingRules",
      "outputs": [],
      "payable": false,
      "stateMutability": "nonpayable",
      "type": "function"
    },
    {
      "constant": true,
      "inputs": [],
      "name": "getFundingRules",
      "outputs": [
        {
          "name": "",
          "type": "uint256"
        },
        {
          "name": "",
          "type": "uint256"
        },
        {
          "name": "",
          "type": "uint256"
        },
        {
          "name": "",
          "type": "uint256"
        }
      ],
      "payable": false,
      "stateMutability": "view",
      "type": "function"
    },
    {
      "constant": false,
      "inputs": [
        {
          "name": "_bridgeContract",
          "type": "address"
        }
      ],
      "name": "setBridgeContract",
      "outputs": [],
      "payable": false,
      "stateMutability": "nonpayable",
      "type": "function"
    },
    {
      "constant": false,
      "inputs": [
        {
          "name": "_to",
          "type": "address"
        },
        {
          "name": "_value",
          "type": "uint256"
        },
        {
          "name": "_data",
          "type": "bytes"
        }
      ],
      "name": "transferAndCall",
      "outputs": [
        {
          "name": "",
          "type": "bool"
        }
      ],
      "payable": false,
      "stateMutability": "nonpayable",
      "type": "function"
    },
    {
      "constant": true,
      "inputs": [],
      "name": "getTokenInterfacesVersion",
      "outputs": [
        {
          "name": "major",
          "type": "uint64"
        },
        {
          "name": "minor",
          "type": "uint64"
        },
        {
          "name": "patch",
          "type": "uint64"
        }
      ],
      "payable": false,
      "stateMutability": "pure",
      "type": "function"
    },
    {
      "constant": false,
      "inputs": [
        {
          "name": "_to",
          "type": "address"
        },
        {
          "name": "_value",
          "type": "uint256"
        }
      ],
      "name": "transfer",
      "outputs": [
        {
          "name": "",
          "type": "bool"
        }
      ],
      "payable": false,
      "stateMutability": "nonpayable",
      "type": "function"
    },
    {
      "constant": false,
      "inputs": [
        {
          "name": "_to",
          "type": "address"
        },
        {
          "name": "_amount",
          "type": "uint256"
        }
      ],
      "name": "mint",
      "outputs": [
        {
          "name": "",
          "type": "bool"
        }
      ],
      "payable": false,
      "stateMutability": "nonpayable",
      "type": "function"
    },
    {
      "constant": false,
      "inputs": [],
      "name": "finishMinting",
      "outputs": [
        {
          "name": "",
          "type": "bool"
        }
      ],
      "payable": false,
      "stateMutability": "nonpayable",
      "type": "function"
    },
    {
      "constant": false,
      "inputs": [],
      "name": "renounceOwnership",
      "outputs": [],
      "payable": false,
      "stateMutability": "nonpayable",
      "type": "function"
    },
    {
      "constant": false,
      "inputs": [
        {
          "name": "_token",
          "type": "address"
        },
        {
          "name": "_to",
          "type": "address"
        }
      ],
      "name": "claimTokens",
      "outputs": [],
      "payable": false,
      "stateMutability": "nonpayable",
      "type": "function"
    }
  ],
  "bytecode": "0x60806040526006805460a060020a60ff0219169055600060088190556009553480156200002b57600080fd5b50604051620016ef380380620016ef8339810160409081528151602080840151928401519184018051909493909301928491849184916200007291600091860190620000bc565b50815162000088906001906020850190620000bc565b506002805460ff90921660ff19909216919091179055505060068054600160a060020a031916331790555062000161915050565b828054600181600116156101000203166002900490600052602060002090601f016020900481019282601f10620000ff57805160ff19168380011785556200012f565b828001600101855582156200012f579182015b828111156200012f57825182559160200191906001019062000112565b506200013d92915062000141565b5090565b6200015e91905b808211156200013d576000815560010162000148565b90565b61157e80620001716000396000f3006080604052600436106101485763ffffffff7c010000000000000000000000000000000000000000000000000000000060003504166305d2035b811461014a57806306fdde0314610173578063095ea7b3146101fd5780630b26cf661461022157806318160ddd1461024257806323b872dd14610269578063313ce567146102935780634000aea0146102be57806340c10f19146102ef57806342966c6814610313578063661884631461032b57806369ffa08a1461034f57806370a0823114610376578063715018a6146103975780637d64bcb4146103ac578063859ba28c146103c15780638da5cb5b1461040257806395d89b411461043357806398a8695414610448578063a9059cbb14610469578063bbc06ebd1461048d578063cd596583146104c8578063d73dd623146104dd578063dd62ed3e14610501578063f2fde38b14610528575b005b34801561015657600080fd5b5061015f610549565b604080519115158252519081900360200190f35b34801561017f57600080fd5b5061018861056a565b6040805160208082528351818301528351919283929083019185019080838360005b838110156101c25781810151838201526020016101aa565b50505050905090810190601f1680156101ef5780820380516001836020036101000a031916815260200191505b509250505060405180910390f35b34801561020957600080fd5b5061015f600160a060020a03600435166024356105f8565b34801561022d57600080fd5b50610148600160a060020a036004351661065e565b34801561024e57600080fd5b506102576106cb565b60408051918252519081900360200190f35b34801561027557600080fd5b5061015f600160a060020a03600435811690602435166044356106d1565b34801561029f57600080fd5b506102a8610836565b6040805160ff9092168252519081900360200190f35b3480156102ca57600080fd5b5061015f60048035600160a060020a031690602480359160443591820191013561083f565b3480156102fb57600080fd5b5061015f600160a060020a0360043516602435610958565b34801561031f57600080fd5b506101486004356109b4565b34801561033757600080fd5b5061015f600160a060020a03600435166024356109c1565b34801561035b57600080fd5b50610148600160a060020a0360043581169060243516610ab0565b34801561038257600080fd5b50610257600160a060020a0360043516610c69565b3480156103a357600080fd5b50610148610c84565b3480156103b857600080fd5b5061015f610ca0565b3480156103cd57600080fd5b506103d6610ca7565b6040805167ffffffffffffffff9485168152928416602084015292168183015290519081900360600190f35b34801561040e57600080fd5b50610417610cb1565b60408051600160a060020a039092168252519081900360200190f35b34801561043f57600080fd5b50610188610cc0565b34801561045457600080fd5b50610148600435602435604435606435610d1a565b34801561047557600080fd5b5061015f600160a060020a0360043516602435610d45565b34801561049957600080fd5b506104a2610ec9565b604080519485526020850193909352838301919091526060830152519081900360800190f35b3480156104d457600080fd5b50610417610edb565b3480156104e957600080fd5b5061015f600160a060020a0360043516602435610eea565b34801561050d57600080fd5b50610257600160a060020a0360043581169060243516610f83565b34801561053457600080fd5b50610148600160a060020a0360043516610fae565b60065474010000000000000000000000000000000000000000900460ff1681565b6000805460408051602060026001851615610100026000190190941693909304601f810184900484028201840190925281815292918301828280156105f05780601f106105c5576101008083540402835291602001916105f0565b820191906000526020600020905b8154815290600101906020018083116105d357829003601f168201915b505050505081565b336000818152600560209081526040808320600160a060020a038716808552908352818420869055815186815291519394909390927f8c5be1e5ebec7d5bd14f71427d1e84f3dd0314c0f7b2291e5b200ac8c7c3b925928290030190a350600192915050565b600654600160a060020a0316331461067557600080fd5b600160a060020a03811615801590610691575061069181610fce565b151561069c57600080fd5b6007805473ffffffffffffffffffffffffffffffffffffffff1916600160a060020a0392909216919091179055565b60045490565b600160a060020a0383166000908152600360205260408120548211156106f657600080fd5b600160a060020a038416600090815260056020908152604080832033845290915290205482111561072657600080fd5b600160a060020a038316151561073b57600080fd5b600160a060020a038416600090815260036020526040902054610764908363ffffffff610fd616565b600160a060020a038086166000908152600360205260408082209390935590851681522054610799908363ffffffff610fe816565b600160a060020a0380851660009081526003602090815260408083209490945591871681526005825282812033825290915220546107dd908363ffffffff610fd616565b600160a060020a0380861660008181526005602090815260408083203384528252918290209490945580518681529051928716939192600080516020611533833981519152929181900390910190a35060019392505050565b60025460ff1681565b600084600160a060020a038116158015906108635750600160a060020a0381163014155b151561086e57600080fd5b6108788686610ffb565b151561088357600080fd5b61088c86611007565b85600160a060020a031633600160a060020a03167fe19260aff97b920c7df27010903aeb9c8d2be5d310a2c67824cf3f15396e4c16878787604051808481526020018060200182810382528484828181526020019250808284376040519201829003965090945050505050a361090186610fce565b1561094c57610941868686868080601f01602080910402602001604051908101604052809392919081815260200183838082843750611081945050505050565b151561094c57600080fd5b50600195945050505050565b600654600090600160a060020a0316331461097257600080fd5b60065474010000000000000000000000000000000000000000900460ff161561099a57600080fd5b6109a383611007565b6109ad83836111eb565b9392505050565b6109be33826112f6565b50565b336000908152600560209081526040808320600160a060020a0386168452909152812054808310610a1557336000908152600560209081526040808320600160a060020a0388168452909152812055610a4a565b610a25818463ffffffff610fd616565b336000908152600560209081526040808320600160a060020a03891684529091529020555b336000818152600560209081526040808320600160a060020a0389168085529083529281902054815190815290519293927f8c5be1e5ebec7d5bd14f71427d1e84f3dd0314c0f7b2291e5b200ac8c7c3b925929181900390910190a35060019392505050565b6006546000908190600160a060020a03163314610acc57600080fd5b600160a060020a0383161515610ae157600080fd5b600160a060020a0384161515610b2d57604051600160a060020a03841690303180156108fc02916000818181858888f19350505050158015610b27573d6000803e3d6000fd5b50610c63565b604080517f70a082310000000000000000000000000000000000000000000000000000000081523060048201529051859350600160a060020a038416916370a082319160248083019260209291908290030181600087803b158015610b9157600080fd5b505af1158015610ba5573d6000803e3d6000fd5b505050506040513d6020811015610bbb57600080fd5b5051604080517fa9059cbb000000000000000000000000000000000000000000000000000000008152600160a060020a0386811660048301526024820184905291519293509084169163a9059cbb916044808201926020929091908290030181600087803b158015610c2c57600080fd5b505af1158015610c40573d6000803e3d6000fd5b505050506040513d6020811015610c5657600080fd5b50511515610c6357600080fd5b50505050565b600160a060020a031660009081526003602052604090205490565b600654600160a060020a03163314610c9b57600080fd5b600080fd5b6000806000fd5b6002600080909192565b600654600160a060020a031681565b60018054604080516020600284861615610100026000190190941693909304601f810184900484028201840190925281815292918301828280156105f05780601f106105c5576101008083540402835291602001916105f0565b600654600160a060020a03163314610d3157600080fd5b600a93909355600b91909155600c55600d55565b6000610d518383610ffb565b1515610dbe57604080517f08c379a000000000000000000000000000000000000000000000000000000000815260206004820152601460248201527f6661696c65642073757065725472616e73666572000000000000000000000000604482015290519081900360640190fd5b610dc783611007565b610dd083610fce565b8015610df55750604080516000815260208101909152610df39084908490611081565b155b15610ec057600754600160a060020a0384811691161415610e7757604080517f08c379a000000000000000000000000000000000000000000000000000000000815260206004820152600d60248201527f7265766572746564206865726500000000000000000000000000000000000000604482015290519081900360640190fd5b60408051338152600160a060020a038516602082015280820184905290517f11249f0fc79fc134a15a10d1da8291b79515bf987e036ced05b9ec119614070b9181900360600190a15b50600192915050565b600a54600b54600c54600d5490919293565b600754600160a060020a031681565b336000908152600560209081526040808320600160a060020a0386168452909152812054610f1e908363ffffffff610fe816565b336000818152600560209081526040808320600160a060020a0389168085529083529281902085905580519485525191937f8c5be1e5ebec7d5bd14f71427d1e84f3dd0314c0f7b2291e5b200ac8c7c3b925929081900390910190a350600192915050565b600160a060020a03918216600090815260056020908152604080832093909416825291909152205490565b600654600160a060020a03163314610fc557600080fd5b6109be816113e5565b6000903b1190565b600082821115610fe257fe5b50900390565b81810182811015610ff557fe5b92915050565b60006109ad8383611463565b600854600a540143111561101f574360085560006009555b600c54600160a060020a038216311080156110425750600b54600954600d540111155b156109be57600d54604051600160a060020a0383169180156108fc02916000818181858888f19350505050156109be57600d5460098054909101905550565b600083600160a060020a03163384846040516024018084600160a060020a0316600160a060020a0316815260200183815260200180602001828103825283818151815260200191508051906020019080838360005b838110156110ee5781810151838201526020016110d6565b50505050905090810190601f16801561111b5780820380516001836020036101000a031916815260200191505b5060408051601f198184030181529181526020820180517bffffffffffffffffffffffffffffffffffffffffffffffffffffffff167fa4c0ed36000000000000000000000000000000000000000000000000000000001781529051825192975095508594509250905080838360005b838110156111a257818101518382015260200161118a565b50505050905090810190601f1680156111cf5780820380516001836020036101000a031916815260200191505b509150506000604051808303816000865af19695505050505050565b600654600090600160a060020a0316331461120557600080fd5b60065474010000000000000000000000000000000000000000900460ff161561122d57600080fd5b600454611240908363ffffffff610fe816565b600455600160a060020a03831660009081526003602052604090205461126c908363ffffffff610fe816565b600160a060020a038416600081815260036020908152604091829020939093558051858152905191927f0f6798a560793a54c3bcfe86a93cde1e73087d944c0ea20544137d412139688592918290030190a2604080518381529051600160a060020a038516916000916000805160206115338339815191529181900360200190a350600192915050565b600160a060020a03821660009081526003602052604090205481111561131b57600080fd5b600160a060020a038216600090815260036020526040902054611344908263ffffffff610fd616565b600160a060020a038316600090815260036020526040902055600454611370908263ffffffff610fd616565b600455604080518281529051600160a060020a038416917fcc16f5dbb4873280815c1ee09dbd06736cffcc184412cf7a71a0fdb75d397ca5919081900360200190a2604080518281529051600091600160a060020a038516916000805160206115338339815191529181900360200190a35050565b600160a060020a03811615156113fa57600080fd5b600654604051600160a060020a038084169216907f8be0079c531659141344cd1fd0a4f28419497f9722a3daafe3b4186f6b6457e090600090a36006805473ffffffffffffffffffffffffffffffffffffffff1916600160a060020a0392909216919091179055565b3360009081526003602052604081205482111561147f57600080fd5b600160a060020a038316151561149457600080fd5b336000908152600360205260409020546114b4908363ffffffff610fd616565b3360009081526003602052604080822092909255600160a060020a038516815220546114e6908363ffffffff610fe816565b600160a060020a0384166000818152600360209081526040918290209390935580518581529051919233926000805160206115338339815191529281900390910190a3506001929150505600ddf252ad1be2c89b69c2b068fc378daa952ba7f163c4a11628f55a4df523b3efa165627a7a723058204ae7a0b41ae94023cdb8e6f5522ba191e038f6fd9b02b19212e9ea77e3f1b2af0029",
  "source": "pragma solidity 0.4.24;\n\nimport \"openzeppelin-solidity/contracts/token/ERC20/BurnableToken.sol\";\nimport \"openzeppelin-solidity/contracts/token/ERC20/MintableToken.sol\";\nimport \"openzeppelin-solidity/contracts/token/ERC20/DetailedERC20.sol\";\nimport \"./IFundableBurnableMintableERC677Token.sol\";\nimport \"./ERC677Receiver.sol\";\n\n\ncontract ERC677BridgeToken is\n    IFundableBurnableMintableERC677Token,\n    DetailedERC20,\n    BurnableToken,\n    MintableToken {\n\n    event ContractFallbackCallFailed(address from, address to, uint value);\n\n    address public bridgeContract;\n\n    uint256 lastFundingPeriod = 0;\n    uint256 totalPeriodFundedAmount = 0;\n\n    FundingRules fundingRules;\n\n    struct FundingRules {\n        uint256 periodLength; // refresh period for next funding round in blocks\n        uint256 maxPeriodFunds; // max amount to fund in a period\n        uint256 threshold; // amount below which a funding event happens\n        uint256 amount; // amount to fund\n    }\n\n    constructor(\n        string _name,\n        string _symbol,\n        uint8 _decimals)\n    public DetailedERC20(_name, _symbol, _decimals) {}\n\n    function () payable {}\n\n    function setFundingRules(uint256 _periodLength, uint256 _maxPeriodFunds, uint256 _threshold, uint256 _amount) onlyOwner public {\n        fundingRules.periodLength = _periodLength;\n        fundingRules.maxPeriodFunds = _maxPeriodFunds;\n        fundingRules.threshold = _threshold;\n        fundingRules.amount = _amount;\n    }\n\n    function getFundingRules() public view returns(uint256, uint256, uint256, uint256){\n        return (fundingRules.periodLength,\n        fundingRules.maxPeriodFunds,\n        fundingRules.threshold,\n        fundingRules.amount);\n    }\n\n    function fundReceiver(address _to) internal {\n        // reset funding period\n        if(block.number > fundingRules.periodLength + lastFundingPeriod) {\n            lastFundingPeriod = block.number;\n            totalPeriodFundedAmount = 0;\n        }\n        // transfer receiver money only if limits are not met and they are below the threshold\n        if(address(_to).balance < fundingRules.threshold && fundingRules.amount + totalPeriodFundedAmount <= fundingRules.maxPeriodFunds) {\n            if(address(_to).send(fundingRules.amount)){\n                totalPeriodFundedAmount += fundingRules.amount;\n            }\n        }\n    }\n\n    function setBridgeContract(address _bridgeContract) onlyOwner public {\n        require(_bridgeContract != address(0) && isContract(_bridgeContract));\n        bridgeContract = _bridgeContract;\n    }\n\n    modifier validRecipient(address _recipient) {\n        require(_recipient != address(0) && _recipient != address(this));\n        _;\n    }\n\n    function transferAndCall(address _to, uint _value, bytes _data)\n        external validRecipient(_to) returns (bool)\n    {\n        require(superTransfer(_to, _value));\n        fundReceiver(_to);\n        emit Transfer(msg.sender, _to, _value, _data);\n\n        if (isContract(_to)) {\n            require(contractFallback(_to, _value, _data));\n        }\n        return true;\n    }\n\n    function getTokenInterfacesVersion() public pure returns(uint64 major, uint64 minor, uint64 patch) {\n        return (2, 0, 0);\n    }\n\n    function superTransfer(address _to, uint256 _value) internal returns(bool)\n    {\n        return super.transfer(_to, _value);\n    }\n\n    function transfer(address _to, uint256 _value) public returns (bool)\n    {\n        require(superTransfer(_to, _value), \"failed superTransfer\");\n        fundReceiver(_to);\n        if (isContract(_to) && !contractFallback(_to, _value, new bytes(0))) {\n            if (_to == bridgeContract) {\n                revert(\"reverted here\");\n            } else {\n                emit ContractFallbackCallFailed(msg.sender, _to, _value);\n            }\n        }\n        return true;\n    }\n\n    function contractFallback(address _to, uint _value, bytes _data)\n        private\n        returns(bool)\n    {\n        return _to.call(abi.encodeWithSignature(\"onTokenTransfer(address,uint256,bytes)\",  msg.sender, _value, _data));\n    }\n\n    function isContract(address _addr)\n        private\n        view\n        returns (bool)\n    {\n        uint length;\n        assembly { length := extcodesize(_addr) }\n        return length > 0;\n    }\n\n    function mint(\n        address _to,\n        uint256 _amount\n    )\n    public\n    hasMintPermission\n    canMint\n    returns (bool)\n    {\n        fundReceiver(_to);\n        return super.mint(_to, _amount);\n    }\n\n    function finishMinting() public returns (bool) {\n        revert();\n    }\n\n    function renounceOwnership() public onlyOwner {\n        revert();\n    }\n\n    function claimTokens(address _token, address _to) public onlyOwner {\n        require(_to != address(0));\n        if (_token == address(0)) {\n            _to.transfer(address(this).balance);\n            return;\n        }\n\n        DetailedERC20 token = DetailedERC20(_token);\n        uint256 balance = token.balanceOf(address(this));\n        require(token.transfer(_to, balance));\n    }\n\n\n}\n",
  "sourcePath": "/home/kevin/tt/thunder_bridge/contracts/contracts/ERC677BridgeToken.sol",
  "compiler": {
    "name": "solc",
    "version": "0.4.24+commit.e67f0147.Emscripten.clang"
  },
  "schemaVersion": "3.2.0",
  "updatedAt": "2020-06-01T07:32:48.219Z",
  "devdoc": {
    "methods": {
      "allowance(address,address)": {
        "details": "Function to check the amount of tokens that an owner allowed to a spender.",
        "params": {
          "_owner": "address The address which owns the funds.",
          "_spender": "address The address which will spend the funds."
        },
        "return": "A uint256 specifying the amount of tokens still available for the spender."
      },
      "approve(address,uint256)": {
        "details": "Approve the passed address to spend the specified amount of tokens on behalf of msg.sender. Beware that changing an allowance with this method brings the risk that someone may use both the old and the new allowance by unfortunate transaction ordering. One possible solution to mitigate this race condition is to first reduce the spender's allowance to 0 and set the desired value afterwards: https://github.com/ethereum/EIPs/issues/20#issuecomment-263524729",
        "params": {
          "_spender": "The address which will spend the funds.",
          "_value": "The amount of tokens to be spent."
        }
      },
      "balanceOf(address)": {
        "details": "Gets the balance of the specified address.",
        "params": {
          "_owner": "The address to query the the balance of."
        },
        "return": "An uint256 representing the amount owned by the passed address."
      },
      "burn(uint256)": {
        "details": "Burns a specific amount of tokens.",
        "params": {
          "_value": "The amount of token to be burned."
        }
      },
      "decreaseApproval(address,uint256)": {
        "details": "Decrease the amount of tokens that an owner allowed to a spender. approve should be called when allowed[_spender] == 0. To decrement allowed value is better to use this function to avoid 2 calls (and wait until the first transaction is mined) From MonolithDAO Token.sol",
        "params": {
          "_spender": "The address which will spend the funds.",
          "_subtractedValue": "The amount of tokens to decrease the allowance by."
        }
      },
      "increaseApproval(address,uint256)": {
        "details": "Increase the amount of tokens that an owner allowed to a spender. approve should be called when allowed[_spender] == 0. To increment allowed value is better to use this function to avoid 2 calls (and wait until the first transaction is mined) From MonolithDAO Token.sol",
        "params": {
          "_addedValue": "The amount of tokens to increase the allowance by.",
          "_spender": "The address which will spend the funds."
        }
      },
      "totalSupply()": {
        "details": "Total number of tokens in existence"
      },
      "transferFrom(address,address,uint256)": {
        "details": "Transfer tokens from one address to another",
        "params": {
          "_from": "address The address which you want to send tokens from",
          "_to": "address The address which you want to transfer to",
          "_value": "uint256 the amount of tokens to be transferred"
        }
      },
      "transferOwnership(address)": {
        "details": "Allows the current owner to transfer control of the contract to a newOwner.",
        "params": {
          "_newOwner": "The address to transfer ownership to."
        }
      }
    }
  },
  "userdoc": {
    "methods": {}
  }
}