{
  "contractName": "HomeBridgeErcToErcWithFee",
  "abi": [
    {
      "constant": true,
      "inputs": [],
      "name": "depositFixedFee",
      "outputs": [
        {
          "name": "",
          "type": "uint256"
        }
      ],
      "payable": false,
      "stateMutability": "view",
      "type": "function"
    },
    {
      "constant": true,
      "inputs": [
        {
          "name": "_message",
          "type": "bytes32"
        }
      ],
      "name": "numMessagesSigned",
      "outputs": [
        {
          "name": "",
          "type": "uint256"
        }
      ],
      "payable": false,
      "stateMutability": "view",
      "type": "function"
    },
    {
      "constant": true,
      "inputs": [
        {
          "name": "_hash",
          "type": "bytes32"
        },
        {
          "name": "_index",
          "type": "uint256"
        }
      ],
      "name": "signature",
      "outputs": [
        {
          "name": "",
          "type": "bytes"
        }
      ],
      "payable": false,
      "stateMutability": "view",
      "type": "function"
    },
    {
      "constant": true,
      "inputs": [],
      "name": "erc677token",
      "outputs": [
        {
          "name": "",
          "type": "address"
        }
      ],
      "payable": false,
      "stateMutability": "view",
      "type": "function"
    },
    {
      "constant": false,
      "inputs": [
        {
          "name": "_fixedFee",
          "type": "uint256"
        }
      ],
      "name": "setDepositFeePercent",
      "outputs": [],
      "payable": false,
      "stateMutability": "nonpayable",
      "type": "function"
    },
    {
      "constant": true,
      "inputs": [
        {
          "name": "_txHash",
          "type": "bytes32"
        }
      ],
      "name": "fixedAssets",
      "outputs": [
        {
          "name": "",
          "type": "bool"
        }
      ],
      "payable": false,
      "stateMutability": "view",
      "type": "function"
    },
    {
      "constant": true,
      "inputs": [
        {
          "name": "_day",
          "type": "uint256"
        }
      ],
      "name": "totalSpentPerDay",
      "outputs": [
        {
          "name": "",
          "type": "uint256"
        }
      ],
      "payable": false,
      "stateMutability": "view",
      "type": "function"
    },
    {
      "constant": true,
      "inputs": [],
      "name": "isInitialized",
      "outputs": [
        {
          "name": "",
          "type": "bool"
        }
      ],
      "payable": false,
      "stateMutability": "view",
      "type": "function"
    },
    {
      "constant": false,
      "inputs": [
        {
          "name": "_fixedFee",
          "type": "uint256"
        }
      ],
      "name": "setWithdrawFixedFee",
      "outputs": [],
      "payable": false,
      "stateMutability": "nonpayable",
      "type": "function"
    },
    {
      "constant": false,
      "inputs": [
        {
          "name": "_dailyLimit",
          "type": "uint256"
        }
      ],
      "name": "setExecutionDailyLimit",
      "outputs": [],
      "payable": false,
      "stateMutability": "nonpayable",
      "type": "function"
    },
    {
      "constant": true,
      "inputs": [],
      "name": "getCurrentDay",
      "outputs": [
        {
          "name": "",
          "type": "uint256"
        }
      ],
      "payable": false,
      "stateMutability": "view",
      "type": "function"
    },
    {
      "constant": true,
      "inputs": [],
      "name": "requiredBlockConfirmations",
      "outputs": [
        {
          "name": "",
          "type": "uint256"
        }
      ],
      "payable": false,
      "stateMutability": "view",
      "type": "function"
    },
    {
      "constant": true,
      "inputs": [],
      "name": "requiredMessageLength",
      "outputs": [
        {
          "name": "",
          "type": "uint256"
        }
      ],
      "payable": false,
      "stateMutability": "pure",
      "type": "function"
    },
    {
      "constant": true,
      "inputs": [
        {
          "name": "_value",
          "type": "uint256"
        }
      ],
      "name": "depositFee",
      "outputs": [
        {
          "name": "",
          "type": "uint256"
        }
      ],
      "payable": false,
      "stateMutability": "view",
      "type": "function"
    },
    {
      "constant": true,
      "inputs": [],
      "name": "getBridgeMode",
      "outputs": [
        {
          "name": "_data",
          "type": "bytes4"
        }
      ],
      "payable": false,
      "stateMutability": "pure",
      "type": "function"
    },
    {
      "constant": true,
      "inputs": [],
      "name": "executionDailyLimit",
      "outputs": [
        {
          "name": "",
          "type": "uint256"
        }
      ],
      "payable": false,
      "stateMutability": "view",
      "type": "function"
    },
    {
      "constant": false,
      "inputs": [
        {
          "name": "_fixedFee",
          "type": "uint256"
        }
      ],
      "name": "setWithdrawFeePercent",
      "outputs": [],
      "payable": false,
      "stateMutability": "nonpayable",
      "type": "function"
    },
    {
      "constant": true,
      "inputs": [
        {
          "name": "_hash",
          "type": "bytes32"
        }
      ],
      "name": "message",
      "outputs": [
        {
          "name": "",
          "type": "bytes"
        }
      ],
      "payable": false,
      "stateMutability": "view",
      "type": "function"
    },
    {
      "constant": true,
      "inputs": [],
      "name": "withdrawFeePercent",
      "outputs": [
        {
          "name": "",
          "type": "uint256"
        }
      ],
      "payable": false,
      "stateMutability": "view",
      "type": "function"
    },
    {
      "constant": true,
      "inputs": [
        {
          "name": "_day",
          "type": "uint256"
        }
      ],
      "name": "totalExecutedPerDay",
      "outputs": [
        {
          "name": "",
          "type": "uint256"
        }
      ],
      "payable": false,
      "stateMutability": "view",
      "type": "function"
    },
    {
      "constant": false,
      "inputs": [
        {
          "name": "signature",
          "type": "bytes"
        },
        {
          "name": "message",
          "type": "bytes"
        }
      ],
      "name": "submitSignature",
      "outputs": [],
      "payable": false,
      "stateMutability": "nonpayable",
      "type": "function"
    },
    {
      "constant": false,
      "inputs": [
        {
          "name": "txHash",
          "type": "bytes32"
        },
        {
          "name": "unlockOnForeign",
          "type": "bool"
        }
      ],
      "name": "fixAssetsAboveLimits",
      "outputs": [],
      "payable": false,
      "stateMutability": "nonpayable",
      "type": "function"
    },
    {
      "constant": true,
      "inputs": [],
      "name": "dailyLimit",
      "outputs": [
        {
          "name": "",
          "type": "uint256"
        }
      ],
      "payable": false,
      "stateMutability": "view",
      "type": "function"
    },
    {
      "constant": false,
      "inputs": [
        {
          "name": "_token",
          "type": "address"
        },
        {
          "name": "_to",
          "type": "address"
        }
      ],
      "name": "claimTokens",
      "outputs": [],
      "payable": false,
      "stateMutability": "nonpayable",
      "type": "function"
    },
    {
      "constant": true,
      "inputs": [
        {
          "name": "_withdrawal",
          "type": "bytes32"
        }
      ],
      "name": "numAffirmationsSigned",
      "outputs": [
        {
          "name": "",
          "type": "uint256"
        }
      ],
      "payable": false,
      "stateMutability": "view",
      "type": "function"
    },
    {
      "constant": true,
      "inputs": [
        {
          "name": "_withdrawal",
          "type": "bytes32"
        }
      ],
      "name": "affirmationsSigned",
      "outputs": [
        {
          "name": "",
          "type": "bool"
        }
      ],
      "payable": false,
      "stateMutability": "view",
      "type": "function"
    },
    {
      "constant": true,
      "inputs": [],
      "name": "withdrawFixedFee",
      "outputs": [
        {
          "name": "",
          "type": "uint256"
        }
      ],
      "payable": false,
      "stateMutability": "view",
      "type": "function"
    },
    {
      "constant": false,
      "inputs": [
        {
          "name": "_feePercent",
          "type": "uint256"
        }
      ],
      "name": "setFeePercent",
      "outputs": [],
      "payable": false,
      "stateMutability": "nonpayable",
      "type": "function"
    },
    {
      "constant": true,
      "inputs": [],
      "name": "feePercent",
      "outputs": [
        {
          "name": "",
          "type": "uint256"
        }
      ],
      "payable": false,
      "stateMutability": "view",
      "type": "function"
    },
    {
      "constant": true,
      "inputs": [
        {
          "name": "_amount",
          "type": "uint256"
        }
      ],
      "name": "withinExecutionLimit",
      "outputs": [
        {
          "name": "",
          "type": "bool"
        }
      ],
      "payable": false,
      "stateMutability": "view",
      "type": "function"
    },
    {
      "constant": true,
      "inputs": [],
      "name": "executionMaxPerTx",
      "outputs": [
        {
          "name": "",
          "type": "uint256"
        }
      ],
      "payable": false,
      "stateMutability": "view",
      "type": "function"
    },
    {
      "constant": true,
      "inputs": [],
      "name": "requiredSignatures",
      "outputs": [
        {
          "name": "",
          "type": "uint256"
        }
      ],
      "payable": false,
      "stateMutability": "view",
      "type": "function"
    },
    {
      "constant": true,
      "inputs": [],
      "name": "owner",
      "outputs": [
        {
          "name": "",
          "type": "address"
        }
      ],
      "payable": false,
      "stateMutability": "view",
      "type": "function"
    },
    {
      "constant": true,
      "inputs": [
        {
          "name": "_message",
          "type": "bytes32"
        }
      ],
      "name": "messagesSigned",
      "outputs": [
        {
          "name": "",
          "type": "bool"
        }
      ],
      "payable": false,
      "stateMutability": "view",
      "type": "function"
    },
    {
      "constant": false,
      "inputs": [
        {
          "name": "_periodLength",
          "type": "uint256"
        },
        {
          "name": "_maxPeriodFunds",
          "type": "uint256"
        },
        {
          "name": "_threshold",
          "type": "uint256"
        },
        {
          "name": "_amount",
          "type": "uint256"
        }
      ],
      "name": "setFundingRules",
      "outputs": [],
      "payable": false,
      "stateMutability": "nonpayable",
      "type": "function"
    },
    {
      "constant": true,
      "inputs": [],
      "name": "validatorContract",
      "outputs": [
        {
          "name": "",
          "type": "address"
        }
      ],
      "payable": false,
      "stateMutability": "view",
      "type": "function"
    },
    {
      "constant": false,
      "inputs": [
        {
          "name": "recipient",
          "type": "address"
        },
        {
          "name": "value",
          "type": "uint256"
        },
        {
          "name": "transactionHash",
          "type": "bytes32"
        }
      ],
      "name": "executeAffirmation",
      "outputs": [],
      "payable": false,
      "stateMutability": "nonpayable",
      "type": "function"
    },
    {
      "constant": true,
      "inputs": [],
      "name": "deployedAtBlock",
      "outputs": [
        {
          "name": "",
          "type": "uint256"
        }
      ],
      "payable": false,
      "stateMutability": "view",
      "type": "function"
    },
    {
      "constant": true,
      "inputs": [],
      "name": "getBridgeInterfacesVersion",
      "outputs": [
        {
          "name": "major",
          "type": "uint64"
        },
        {
          "name": "minor",
          "type": "uint64"
        },
        {
          "name": "patch",
          "type": "uint64"
        }
      ],
      "payable": false,
      "stateMutability": "pure",
      "type": "function"
    },
    {
      "constant": true,
      "inputs": [],
      "name": "outOfLimitAmount",
      "outputs": [
        {
          "name": "",
          "type": "uint256"
        }
      ],
      "payable": false,
      "stateMutability": "view",
      "type": "function"
    },
    {
      "constant": false,
      "inputs": [
        {
          "name": "_minPerTx",
          "type": "uint256"
        }
      ],
      "name": "setMinPerTx",
      "outputs": [],
      "payable": false,
      "stateMutability": "nonpayable",
      "type": "function"
    },
    {
      "constant": false,
      "inputs": [
        {
          "name": "_blockConfirmations",
          "type": "uint256"
        }
      ],
      "name": "setRequiredBlockConfirmations",
      "outputs": [],
      "payable": false,
      "stateMutability": "nonpayable",
      "type": "function"
    },
    {
      "constant": false,
      "inputs": [
        {
          "name": "_dailyLimit",
          "type": "uint256"
        }
      ],
      "name": "setDailyLimit",
      "outputs": [],
      "payable": false,
      "stateMutability": "nonpayable",
      "type": "function"
    },
    {
      "constant": true,
      "inputs": [],
      "name": "feeReceiver",
      "outputs": [
        {
          "name": "",
          "type": "address"
        }
      ],
      "payable": false,
      "stateMutability": "view",
      "type": "function"
    },
    {
      "constant": true,
      "inputs": [
        {
          "name": "_value",
          "type": "uint256"
        }
      ],
      "name": "withdrawFee",
      "outputs": [
        {
          "name": "",
          "type": "uint256"
        }
      ],
      "payable": false,
      "stateMutability": "view",
      "type": "function"
    },
    {
      "constant": false,
      "inputs": [
        {
          "name": "_gasPrice",
          "type": "uint256"
        }
      ],
      "name": "setGasPrice",
      "outputs": [],
      "payable": false,
      "stateMutability": "nonpayable",
      "type": "function"
    },
    {
      "constant": true,
      "inputs": [
        {
          "name": "_value",
          "type": "uint256"
        }
      ],
      "name": "subtractFee",
      "outputs": [
        {
          "name": "",
          "type": "uint256"
        }
      ],
      "payable": false,
      "stateMutability": "view",
      "type": "function"
    },
    {
      "constant": false,
      "inputs": [
        {
          "name": "_maxPerTx",
          "type": "uint256"
        }
      ],
      "name": "setMaxPerTx",
      "outputs": [],
      "payable": false,
      "stateMutability": "nonpayable",
      "type": "function"
    },
    {
      "constant": true,
      "inputs": [],
      "name": "depositFeePercent",
      "outputs": [
        {
          "name": "",
          "type": "uint256"
        }
      ],
      "payable": false,
      "stateMutability": "view",
      "type": "function"
    },
    {
      "constant": true,
      "inputs": [],
      "name": "upgradeabilityAdmin",
      "outputs": [
        {
          "name": "",
          "type": "address"
        }
      ],
      "payable": false,
      "stateMutability": "view",
      "type": "function"
    },
    {
      "constant": true,
      "inputs": [],
      "name": "minPerTx",
      "outputs": [
        {
          "name": "",
          "type": "uint256"
        }
      ],
      "payable": false,
      "stateMutability": "view",
      "type": "function"
    },
    {
      "constant": false,
      "inputs": [
        {
          "name": "_validatorContract",
          "type": "address"
        },
        {
          "name": "_dailyLimit",
          "type": "uint256"
        },
        {
          "name": "_maxPerTx",
          "type": "uint256"
        },
        {
          "name": "_minPerTx",
          "type": "uint256"
        },
        {
          "name": "_homeGasPrice",
          "type": "uint256"
        },
        {
          "name": "_requiredBlockConfirmations",
          "type": "uint256"
        },
        {
          "name": "_erc677token",
          "type": "address"
        },
        {
          "name": "_foreignDailyLimit",
          "type": "uint256"
        },
        {
          "name": "_foreignMaxPerTx",
          "type": "uint256"
        },
        {
          "name": "_owner",
          "type": "address"
        },
        {
          "name": "_feePercent",
          "type": "uint256"
        }
      ],
      "name": "initialize",
      "outputs": [
        {
          "name": "",
          "type": "bool"
        }
      ],
      "payable": false,
      "stateMutability": "nonpayable",
      "type": "function"
    },
    {
      "constant": true,
      "inputs": [
        {
          "name": "_amount",
          "type": "uint256"
        }
      ],
      "name": "withinLimit",
      "outputs": [
        {
          "name": "",
          "type": "bool"
        }
      ],
      "payable": false,
      "stateMutability": "view",
      "type": "function"
    },
    {
      "constant": false,
      "inputs": [
        {
          "name": "_receiver",
          "type": "address"
        }
      ],
      "name": "setFeeReceiver",
      "outputs": [],
      "payable": false,
      "stateMutability": "nonpayable",
      "type": "function"
    },
    {
      "constant": false,
      "inputs": [
        {
          "name": "_maxPerTx",
          "type": "uint256"
        }
      ],
      "name": "setExecutionMaxPerTx",
      "outputs": [],
      "payable": false,
      "stateMutability": "nonpayable",
      "type": "function"
    },
    {
      "constant": false,
      "inputs": [
        {
          "name": "newOwner",
          "type": "address"
        }
      ],
      "name": "transferOwnership",
      "outputs": [],
      "payable": false,
      "stateMutability": "nonpayable",
      "type": "function"
    },
    {
      "constant": false,
      "inputs": [
        {
          "name": "_fixedFee",
          "type": "uint256"
        }
      ],
      "name": "setDepositFixedFee",
      "outputs": [],
      "payable": false,
      "stateMutability": "nonpayable",
      "type": "function"
    },
    {
      "constant": true,
      "inputs": [],
      "name": "maxPerTx",
      "outputs": [
        {
          "name": "",
          "type": "uint256"
        }
      ],
      "payable": false,
      "stateMutability": "view",
      "type": "function"
    },
    {
      "constant": true,
      "inputs": [],
      "name": "gasPrice",
      "outputs": [
        {
          "name": "",
          "type": "uint256"
        }
      ],
      "payable": false,
      "stateMutability": "view",
      "type": "function"
    },
    {
      "constant": true,
      "inputs": [
        {
          "name": "_number",
          "type": "uint256"
        }
      ],
      "name": "isAlreadyProcessed",
      "outputs": [
        {
          "name": "",
          "type": "bool"
        }
      ],
      "payable": false,
      "stateMutability": "pure",
      "type": "function"
    },
    {
      "payable": true,
      "stateMutability": "payable",
      "type": "fallback"
    },
    {
      "anonymous": false,
      "inputs": [
        {
          "indexed": false,
          "name": "_receiver",
          "type": "address"
        }
      ],
      "name": "FeeReceiverChange",
      "type": "event"
    },
    {
      "anonymous": false,
      "inputs": [
        {
          "indexed": false,
          "name": "_fixedFee",
          "type": "uint256"
        }
      ],
      "name": "WithdrawFixedFeeChanged",
      "type": "event"
    },
    {
      "anonymous": false,
      "inputs": [
        {
          "indexed": false,
          "name": "_feePercent",
          "type": "uint256"
        }
      ],
      "name": "WithdrawFeePercentChanged",
      "type": "event"
    },
    {
      "anonymous": false,
      "inputs": [
        {
          "indexed": false,
          "name": "_fixedFee",
          "type": "uint256"
        }
      ],
      "name": "DepositFixedFeeChanged",
      "type": "event"
    },
    {
      "anonymous": false,
      "inputs": [
        {
          "indexed": false,
          "name": "_feePercent",
          "type": "uint256"
        }
      ],
      "name": "DepositFeePercentChanged",
      "type": "event"
    },
    {
      "anonymous": false,
      "inputs": [
        {
          "indexed": false,
          "name": "recipient",
          "type": "address"
        },
        {
          "indexed": false,
          "name": "value",
          "type": "uint256"
        },
        {
          "indexed": false,
          "name": "transactionHash",
          "type": "bytes32"
        }
      ],
      "name": "AmountLimitExceeded",
      "type": "event"
    },
    {
      "anonymous": false,
      "inputs": [
        {
          "indexed": false,
          "name": "newFeePercent",
          "type": "uint256"
        }
      ],
      "name": "FeePercentChanged",
      "type": "event"
    },
    {
      "anonymous": false,
      "inputs": [
        {
          "indexed": false,
          "name": "recipient",
          "type": "address"
        },
        {
          "indexed": false,
          "name": "value",
          "type": "uint256"
        }
      ],
      "name": "UserRequestForSignature",
      "type": "event"
    },
    {
      "anonymous": false,
      "inputs": [
        {
          "indexed": false,
          "name": "recipient",
          "type": "address"
        },
        {
          "indexed": false,
          "name": "value",
          "type": "uint256"
        },
        {
          "indexed": false,
          "name": "transactionHash",
          "type": "bytes32"
        }
      ],
      "name": "AffirmationCompleted",
      "type": "event"
    },
    {
      "anonymous": false,
      "inputs": [
        {
          "indexed": true,
          "name": "signer",
          "type": "address"
        },
        {
          "indexed": false,
          "name": "messageHash",
          "type": "bytes32"
        }
      ],
      "name": "SignedForUserRequest",
      "type": "event"
    },
    {
      "anonymous": false,
      "inputs": [
        {
          "indexed": true,
          "name": "signer",
          "type": "address"
        },
        {
          "indexed": false,
          "name": "transactionHash",
          "type": "bytes32"
        }
      ],
      "name": "SignedForAffirmation",
      "type": "event"
    },
    {
      "anonymous": false,
      "inputs": [
        {
          "indexed": false,
          "name": "authorityResponsibleForRelay",
          "type": "address"
        },
        {
          "indexed": false,
          "name": "messageHash",
          "type": "bytes32"
        },
        {
          "indexed": false,
          "name": "NumberOfCollectedSignatures",
          "type": "uint256"
        }
      ],
      "name": "CollectedSignatures",
      "type": "event"
    },
    {
      "anonymous": false,
      "inputs": [
        {
          "indexed": false,
          "name": "gasPrice",
          "type": "uint256"
        }
      ],
      "name": "GasPriceChanged",
      "type": "event"
    },
    {
      "anonymous": false,
      "inputs": [
        {
          "indexed": false,
          "name": "requiredBlockConfirmations",
          "type": "uint256"
        }
      ],
      "name": "RequiredBlockConfirmationChanged",
      "type": "event"
    },
    {
      "anonymous": false,
      "inputs": [
        {
          "indexed": false,
          "name": "newLimit",
          "type": "uint256"
        }
      ],
      "name": "DailyLimitChanged",
      "type": "event"
    },
    {
      "anonymous": false,
      "inputs": [
        {
          "indexed": false,
          "name": "newLimit",
          "type": "uint256"
        }
      ],
      "name": "ExecutionDailyLimitChanged",
      "type": "event"
    },
    {
      "anonymous": false,
      "inputs": [
        {
          "indexed": false,
          "name": "previousOwner",
          "type": "address"
        },
        {
          "indexed": false,
          "name": "newOwner",
          "type": "address"
        }
      ],
      "name": "OwnershipTransferred",
      "type": "event"
    },
    {
      "constant": false,
      "inputs": [
        {
          "name": "_from",
          "type": "address"
        },
        {
          "name": "_value",
          "type": "uint256"
        },
        {
          "name": "_data",
          "type": "bytes"
        }
      ],
      "name": "onTokenTransfer",
      "outputs": [
        {
          "name": "",
          "type": "bool"
        }
      ],
      "payable": false,
      "stateMutability": "nonpayable",
      "type": "function"
    }
  ],
  "bytecode": "0x608060405234801561001057600080fd5b5061511b806100206000396000f3006080604052600436106102bb5763ffffffff60e060020a60003504166302ef36c781146102c05780630cbf0601146102e75780631812d996146102ff57806318d8f9c91461038f5780632052eb77146103c05780632888bb9c146103da5780632bd0bb0514610406578063392e53cd1461041e5780633d8a22a4146104335780633dd95d1b1461044b5780633e6968b6146104635780633f0a9f6514610478578063408fef2e1461048d578063423c485a146104a2578063437764df146104ba57806343b37dd314610504578063447cb89614610519578063490a32c614610531578063495ef705146105495780634fb3fef71461055e578063630cea8e1461057657806364d188eb146105a257806367eeba0c146105bf57806369ffa08a146105d45780636ae1a976146105fb5780637698da241461061357806379cef02f1461062b5780637ce3489b146106405780637fd6f15c14610658578063879ce6761461066d5780638aa1949a146106855780638d0680431461069a5780638da5cb5b146106af5780638f4b4b98146106c457806398a86954146106dc57806399439089146106fd578063995b2cff146107125780639a454b99146107395780639cb7595a1461074e578063a01893451461078f578063a2a6ca27146107a4578063a4c0ed36146107bc578063acf5c689146107ed578063b20d30a914610805578063b3f006741461081d578063be35761614610832578063bf1fe4201461084a578063c056765614610862578063c6f6f2161461087a578063cc1252ae14610892578063df0ad3de146108a7578063df25f3f0146108bc578063df8a50f1146108d1578063ea9f496814610920578063efdcd97414610938578063f20151e114610959578063f2fde38b14610971578063f48371c014610992578063f968adbe146109aa578063fe173b97146109bf578063ffd19e8c146109d4575b600080fd5b3480156102cc57600080fd5b506102d56109ec565b60408051918252519081900360200190f35b3480156102f357600080fd5b506102d5600435610aa1565b34801561030b57600080fd5b5061031a600435602435610b66565b6040805160208082528351818301528351919283929083019185019080838360005b8381101561035457818101518382015260200161033c565b50505050905090810190601f1680156103815780820380516001836020036101000a031916815260200191505b509250505060405180910390f35b34801561039b57600080fd5b506103a4610bff565b60408051600160a060020a039092168252519081900360200190f35b3480156103cc57600080fd5b506103d8600435610cbd565b005b3480156103e657600080fd5b506103f2600435610dbf565b604080519115158252519081900360200190f35b34801561041257600080fd5b506102d5600435610e88565b34801561042a57600080fd5b506103f2610f03565b34801561043f57600080fd5b506103d8600435610fbb565b34801561045757600080fd5b506103d86004356110bd565b34801561046f57600080fd5b506102d56111bf565b34801561048457600080fd5b506102d56111c8565b34801561049957600080fd5b506102d561123b565b3480156104ae57600080fd5b506102d560043561124a565b3480156104c657600080fd5b506104cf6112a5565b604080517fffffffff000000000000000000000000000000000000000000000000000000009092168252519081900360200190f35b34801561051057600080fd5b506102d5611348565b34801561052557600080fd5b506103d86004356113bb565b34801561053d57600080fd5b5061031a600435611449565b34801561055557600080fd5b506102d561145a565b34801561056a57600080fd5b506102d56004356114cd565b34801561058257600080fd5b506103d86024600480358281019290820135918135918201910135611548565b3480156105ae57600080fd5b506103d860043560243515156119a3565b3480156105cb57600080fd5b506102d5611a82565b3480156105e057600080fd5b506103d8600160a060020a0360043581169060243516611af5565b34801561060757600080fd5b506102d5600435611cab565b34801561061f57600080fd5b506103f2600435611d2e565b34801561063757600080fd5b506102d5611db2565b34801561064c57600080fd5b506103d8600435611e25565b34801561066457600080fd5b506102d5611f80565b34801561067957600080fd5b506103f2600435611ff3565b34801561069157600080fd5b506102d561203d565b3480156106a657600080fd5b506102d56120b0565b3480156106bb57600080fd5b506103a4612128565b3480156106d057600080fd5b506103f260043561219c565b3480156106e857600080fd5b506103d8600435602435604435606435612220565b34801561070957600080fd5b506103a46122c2565b34801561071e57600080fd5b506103d8600160a060020a0360043516602435604435612336565b34801561074557600080fd5b506102d5612626565b34801561075a57600080fd5b50610763612699565b6040805167ffffffffffffffff9485168152928416602084015292168183015290519081900360600190f35b34801561079b57600080fd5b506102d56126a3565b3480156107b057600080fd5b506103d8600435612716565b3480156107c857600080fd5b506103f260048035600160a060020a031690602480359160443591820191013561280d565b3480156107f957600080fd5b506103d8600435612aef565b34801561081157600080fd5b506103d8600435612bfe565b34801561082957600080fd5b506103a4612d00565b34801561083e57600080fd5b506102d5600435612d74565b34801561085657600080fd5b506103d8600435612d98565b34801561086e57600080fd5b506102d5600435612ea7565b34801561088657600080fd5b506103d8600435612ed8565b34801561089e57600080fd5b506102d5612f79565b3480156108b357600080fd5b506103a4612fec565b3480156108c857600080fd5b506102d561302c565b3480156108dd57600080fd5b506103f2600160a060020a036004358116906024359060443590606435906084359060a4359060c43581169060e43590610104359061012435166101443561309f565b34801561092c57600080fd5b506103f260043561389d565b34801561094457600080fd5b506103d8600160a060020a03600435166138e8565b34801561096557600080fd5b506103d8600435613a0e565b34801561097d57600080fd5b506103d8600160a060020a0360043516613aaf565b34801561099e57600080fd5b506103d8600435613aec565b3480156109b657600080fd5b506102d5613b7a565b3480156109cb57600080fd5b506102d5613bed565b3480156109e057600080fd5b506103f2600435613c60565b600080600060405160200180807f6465706f73697446697865644665650000000000000000000000000000000000815250600f0190506040516020818303038152906040526040518082805190602001908083835b60208310610a605780518252601f199092019160209182019101610a41565b51815160209384036101000a600019018019909216911617905260408051929094018290039091208652850195909552929092016000205493505050505b90565b60008060008360405160200180807f6e756d4d657373616765735369676e656400000000000000000000000000000081525060110182600019166000191681526020019150506040516020818303038152906040526040518082805190602001908083835b60208310610b255780518252601f199092019160209182019101610b06565b51815160209384036101000a600019018019909216911617905260408051929094018290039091208652850195909552929092016000205495945050505050565b604080516020808201859052818301849052825180830384018152606092830193849052805192936000939192909182918401908083835b60208310610bbd5780518252601f199092019160209182019101610b9e565b6001836020036101000a03801982511681845116808217855250505050505090500191505060405180910390209050610bf581613c88565b91505b5092915050565b60006002600060405160200180807f657263363737746f6b656e000000000000000000000000000000000000000000815250600b0190506040516020818303038152906040526040518082805190602001908083835b60208310610c745780518252601f199092019160209182019101610c55565b51815160209384036101000a6000190180199092169116179052604080519290940182900390912086528501959095529290920160002054600160a060020a0316949350505050565b610cc5612128565b600160a060020a03163314610cd957600080fd5b8060008060405160200180807f6465706f73697446656550657263656e7400000000000000000000000000000081525060110190506040516020818303038152906040526040518082805190602001908083835b60208310610d4c5780518252601f199092019160209182019101610d2d565b51815160001960209485036101000a019081169019919091161790526040805194909201849003909320865285830196909652509284016000209490945550815184815291517f6279d9473dc88fcc617c497810459ca473fc1acc213415c9aba6386adad59ba99350918290030190a150565b6000600460008360405160200180807f6669786564417373657473000000000000000000000000000000000000000000815250600b0182600019166000191681526020019150506040516020818303038152906040526040518082805190602001908083835b60208310610e445780518252601f199092019160209182019101610e25565b51815160209384036101000a600019018019909216911617905260408051929094018290039091208652850195909552929092016000205460ff1695945050505050565b60008060008360405160200180807f746f74616c5370656e745065724461790000000000000000000000000000000081525060100182815260200191505060405160208183030381529060405260405180828051906020019080838360208310610b255780518252601f199092019160209182019101610b06565b60006004600060405160200180807f6973496e697469616c697a656400000000000000000000000000000000000000815250600d0190506040516020818303038152906040526040518082805190602001908083835b60208310610f785780518252601f199092019160209182019101610f59565b51815160209384036101000a600019018019909216911617905260408051929094018290039091208652850195909552929092016000205460ff16949350505050565b610fc3612128565b600160a060020a03163314610fd757600080fd5b8060008060405160200180807f776974686472617746697865644665650000000000000000000000000000000081525060100190506040516020818303038152906040526040518082805190602001908083835b6020831061104a5780518252601f19909201916020918201910161102b565b51815160001960209485036101000a019081169019919091161790526040805194909201849003909320865285830196909652509284016000209490945550815184815291517fb9daf71f6af3d5016cbc5f8cd112abab2791e7b5de5d77777fa365129d38b83c9350918290030190a150565b6110c5612128565b600160a060020a031633146110d957600080fd5b8060008060405160200180807f657865637574696f6e4461696c794c696d69740000000000000000000000000081525060130190506040516020818303038152906040526040518082805190602001908083835b6020831061114c5780518252601f19909201916020918201910161112d565b51815160001960209485036101000a019081169019919091161790526040805194909201849003909320865285830196909652509284016000209490945550815184815291517f9bebf928b90863f24cc31f726a3a7545efd409f1dcf552301b1ee3710da70d3b9350918290030190a150565b62015180420490565b600080600060405160200180807f7265717569726564426c6f636b436f6e6669726d6174696f6e73000000000000815250601a01905060405160208183030381529060405260405180828051906020019080838360208310610a605780518252601f199092019160209182019101610a41565b6000611245613df0565b905090565b6000806000806112586109ec565b925061271091506112878261127b61126e612f79565b889063ffffffff613df516565b9063ffffffff613e2016565b9050808311156112995782935061129d565b8093505b505050919050565b600060405160200180807f6572632d746f2d6572632d636f72650000000000000000000000000000000000815250600f0190506040516020818303038152906040526040518082805190602001908083835b602083106113165780518252601f1990920191602091820191016112f7565b6001836020036101000a0380198251168184511680821785525050505050509050019150506040518091039020905090565b600080600060405160200180807f657865637574696f6e4461696c794c696d697400000000000000000000000000815250601301905060405160208183030381529060405260405180828051906020019080838360208310610a605780518252601f199092019160209182019101610a41565b6113c3612128565b600160a060020a031633146113d757600080fd5b8060008060405160200180807f776974686472617746656550657263656e74000000000000000000000000000081525060120190506040516020818303038152906040526040518082805190602001908083836020831061104a5780518252601f19909201916020918201910161102b565b606061145482613e37565b92915050565b600080600060405160200180807f776974686472617746656550657263656e740000000000000000000000000000815250601201905060405160208183030381529060405260405180828051906020019080838360208310610a605780518252601f199092019160209182019101610a41565b60008060008360405160200180807f746f74616c45786563757465645065724461790000000000000000000000000081525060130182815260200191505060405160208183030381529060405260405180828051906020019080838360208310610b255780518252601f199092019160209182019101610b06565b60008060008060006115586122c2565b600160a060020a031663facd743b336040518263ffffffff1660e060020a0281526004018082600160a060020a0316600160a060020a03168152602001915050602060405180830381600087803b1580156115b257600080fd5b505af11580156115c6573d6000803e3d6000fd5b505050506040513d60208110156115dc57600080fd5b505115156115e957600080fd5b61162287878080601f01602080910402602001604051908101604052809392919081815260200183838082843750613ebb945050505050565b151561162d57600080fd5b61169489898080601f0160208091040260200160405190810160405280939291908181526020018383808284375050604080516020601f8f018190048102820181019092528d815294508d93508c9250829150840183828082843750613ecf945050505050565b600160a060020a031633146116a857600080fd5b8686604051602001808383808284378201915050925050506040516020818303038152906040526040518082805190602001908083835b602083106116fe5780518252601f1990920191602091820191016116df565b51815160209384036101000a600019018019909216911617905260408051929094018290038220336c0100000000000000000000000002838301526034808401829052855180850390910181526054909301948590528251909b509195509293508392850191508083835b602083106117885780518252601f199092019160209182019101611769565b6001836020036101000a038019825116818451168082178552505050505050905001915050604051809103902093506117c085610aa1565b92506117cb83613c60565b156117d557600080fd5b6001928301928311156117fa576117eb8461219c565b156117f557600080fd5b611834565b6118348588888080601f01602080910402602001604051908101604052809392919081815260200183838082843750613f8f945050505050565b61183f846001614066565b604080516020808201889052600019860182840152825180830384018152606090920192839052815191929182918401908083835b602083106118935780518252601f199092019160209182019101611874565b51815160209384036101000a600019018019909216911617905260408051929094018290038220601f8f018290048202830182019094528d82529296506118f49450869350918d91508c908190840183828082843750614138945050505050565b6118fe85846141bb565b60408051868152905133917fbf06885f40778f5ccfb64497d3f92ce568ddaedb7e2fb4487f72690418cf8e4c919081900360200190a261193c6120b0565b9050808310611998576119578561195285614280565b6141bb565b604080513381526020810187905280820183905290517f415557404d88a0c0b8e3b16967cafffc511213fd9c465c16832ee17ed57d72379181900360600190a15b505050505050505050565b6000806119ae612fec565b600160a060020a031633146119c257600080fd5b6119cb84610dbf565b156119d557600080fd5b6119de846142a5565b9092509050600160a060020a038216158015906119fb5750600081115b1515611a0657600080fd5b611a26611a2182611a156126a3565b9063ffffffff61442c16565b61443e565b8215611a715760408051600160a060020a03841681526020810183905281517f127650bcfb0ba017401abe4931453a405140a8fd36fece67bae2db174d3fdd63929181900390910190a15b611a7c8460016144b0565b50505050565b600080600060405160200180807f6461696c794c696d697400000000000000000000000000000000000000000000815250600a01905060405160208183030381529060405260405180828051906020019080838360208310610a605780518252601f199092019160209182019101610a41565b600080611b00612fec565b600160a060020a03163314611b1457600080fd5b600160a060020a0383161515611b2957600080fd5b600160a060020a0384161515611b7557604051600160a060020a03841690303180156108fc02916000818181858888f19350505050158015611b6f573d6000803e3d6000fd5b50611a7c565b604080517f70a082310000000000000000000000000000000000000000000000000000000081523060048201529051859350600160a060020a038416916370a082319160248083019260209291908290030181600087803b158015611bd957600080fd5b505af1158015611bed573d6000803e3d6000fd5b505050506040513d6020811015611c0357600080fd5b5051604080517fa9059cbb000000000000000000000000000000000000000000000000000000008152600160a060020a0386811660048301526024820184905291519293509084169163a9059cbb916044808201926020929091908290030181600087803b158015611c7457600080fd5b505af1158015611c88573d6000803e3d6000fd5b505050506040513d6020811015611c9e57600080fd5b50511515611a7c57600080fd5b60008060008360405160200180807f6e756d41666669726d6174696f6e735369676e65640000000000000000000000815250601501826000191660001916815260200191505060405160208183030381529060405260405180828051906020019080838360208310610b255780518252601f199092019160209182019101610b06565b6000600460008360405160200180807f61666669726d6174696f6e735369676e65640000000000000000000000000000815250601201826000191660001916815260200191505060405160208183030381529060405260405180828051906020019080838360208310610e445780518252601f199092019160209182019101610e25565b600080600060405160200180807f7769746864726177466978656446656500000000000000000000000000000000815250601001905060405160208183030381529060405260405180828051906020019080838360208310610a605780518252601f199092019160209182019101610a41565b611e2d612128565b600160a060020a03163314611e4157600080fd5b6127108110611e9a576040805160e560020a62461bcd02815260206004820152601360248201527f496e76616c6964206665652070657263656e7400000000000000000000000000604482015290519081900360640190fd5b8060008060405160200180807f66656550657263656e7400000000000000000000000000000000000000000000815250600a0190506040516020818303038152906040526040518082805190602001908083835b60208310611f0d5780518252601f199092019160209182019101611eee565b51815160001960209485036101000a019081169019919091161790526040805194909201849003909320865285830196909652509284016000209490945550815184815291517f91955c12515f4eb8f1ff79df82d1933ff11b6d3b9a3019c6568840616ec36a749350918290030190a150565b600080600060405160200180807f66656550657263656e7400000000000000000000000000000000000000000000815250600a01905060405160208183030381529060405260405180828051906020019080838360208310610a605780518252601f199092019160209182019101610a41565b6000806120168361200a6120056111bf565b6114cd565b9063ffffffff61453316565b905080612021611348565b10158015612036575061203261203d565b8311155b9392505050565b600080600060405160200180807f657865637574696f6e4d61785065725478000000000000000000000000000000815250601101905060405160208183030381529060405260405180828051906020019080838360208310610a605780518252601f199092019160209182019101610a41565b60006120ba6122c2565b600160a060020a0316638d0680436040518163ffffffff1660e060020a028152600401602060405180830381600087803b1580156120f757600080fd5b505af115801561210b573d6000803e3d6000fd5b505050506040513d602081101561212157600080fd5b5051905090565b60006002600060405160200180807f6f776e6572000000000000000000000000000000000000000000000000000000815250600501905060405160208183030381529060405260405180828051906020019080838360208310610c745780518252601f199092019160209182019101610c55565b6000600460008360405160200180807f6d657373616765735369676e6564000000000000000000000000000000000000815250600e01826000191660001916815260200191505060405160208183030381529060405260405180828051906020019080838360208310610e445780518252601f199092019160209182019101610e25565b612228612128565b600160a060020a0316331461223c57600080fd5b612244610bff565b600160a060020a03166398a86954858585856040518563ffffffff1660e060020a02815260040180858152602001848152602001838152602001828152602001945050505050600060405180830381600087803b1580156122a457600080fd5b505af11580156122b8573d6000803e3d6000fd5b5050505050505050565b60006002600060405160200180807f76616c696461746f72436f6e7472616374000000000000000000000000000000815250601101905060405160208183030381529060405260405180828051906020019080838360208310610c745780518252601f199092019160209182019101610c55565b60008060006123436122c2565b600160a060020a031663facd743b336040518263ffffffff1660e060020a0281526004018082600160a060020a0316600160a060020a03168152602001915050602060405180830381600087803b15801561239d57600080fd5b505af11580156123b1573d6000803e3d6000fd5b505050506040513d60208110156123c757600080fd5b505115156123d457600080fd5b6123dd85614542565b1561261357604080516c01000000000000000000000000600160a060020a0389160260208083019190915260348201889052605480830188905283518084039091018152607490920192839052815191929182918401908083835b602083106124575780518252601f199092019160209182019101612438565b51815160209384036101000a600019018019909216911617905260408051929094018290038220336c01000000000000000000000000028383015260348084018290528551808503909101815260549093019485905282519099509195509293508392850191508083835b602083106124e15780518252601f1990920191602091820191016124c2565b6001836020036101000a0380198251168184511680821785525050505050509050019150506040518091039020915061251982611d2e565b1561252357600080fd5b61252e82600161454d565b61253783611cab565b905061254281613c60565b1561254c57600080fd5b60010161255983826145d0565b60408051858152905133917f5df9cc3eb93d8a9a481857a3b70a8ca966e6b80b25cf0ee2cce180ec5afa80a1919081900360200190a26125976120b0565b811061260e576125af836125aa83614280565b6145d0565b6125b98686614652565b15156125c457600080fd5b60408051600160a060020a03881681526020810187905280820186905290517f6fc115a803b8703117d9a3956c5a15401cb42401f91630f015eb6b043fa762539181900360600190a15b61261e565b61261e86868661488f565b505050505050565b600080600060405160200180807f6465706c6f7965644174426c6f636b0000000000000000000000000000000000815250600f01905060405160208183030381529060405260405180828051906020019080838360208310610a605780518252601f199092019160209182019101610a41565b6002806000909192565b600080600060405160200180807f6f75744f664c696d6974416d6f756e7400000000000000000000000000000000815250601001905060405160208183030381529060405260405180828051906020019080838360208310610a605780518252601f199092019160209182019101610a41565b61271e612128565b600160a060020a0316331461273257600080fd5b61273a611a82565b8110801561274e575061274b613b7a565b81105b151561275957600080fd5b8060008060405160200180807f6d696e506572547800000000000000000000000000000000000000000000000081525060080190506040516020818303038152906040526040518082805190602001908083835b602083106127cc5780518252601f1990920191602091820191016127ad565b51815160209384036101000a600019018019909216911617905260408051929094018290039091208652850195909552929092016000209390935550505050565b600080600061281a610bff565b600160a060020a03163314612879576040805160e560020a62461bcd02815260206004820152600c60248201527f556e6b6f776e20746f6b656e0000000000000000000000000000000000000000604482015290519081900360640190fd5b6128828661389d565b15156128d8576040805160e560020a62461bcd02815260206004820152601860248201527f5472616e73666572206c696d69742065786365656465642e0000000000000000604482015290519081900360640190fd5b6128e0611db2565b8611612936576040805160e560020a62461bcd02815260206004820152601660248201527f56616c7565206973206c657373207468616e2066656500000000000000000000604482015290519081900360640190fd5b61293f86612d74565b91508115612a3a5761294f610bff565b600160a060020a031663a9059cbb612965612d00565b846040518363ffffffff1660e060020a0281526004018083600160a060020a0316600160a060020a0316815260200182815260200192505050602060405180830381600087803b1580156129b857600080fd5b505af11580156129cc573d6000803e3d6000fd5b505050506040513d60208110156129e257600080fd5b50511515612a3a576040805160e560020a62461bcd02815260206004820152601660248201527f6661696c656420746f207472616e736665722066656500000000000000000000604482015290519081900360640190fd5b612a4a868363ffffffff61442c16565b9050612a70612a576111bf565b612a6b8361200a612a666111bf565b610e88565b61492a565b612a78610bff565b600160a060020a03166342966c68826040518263ffffffff1660e060020a02815260040180828152602001915050600060405180830381600087803b158015612ac057600080fd5b505af1158015612ad4573d6000803e3d6000fd5b50505050612ae287826149a4565b5060019695505050505050565b612af7612128565b600160a060020a03163314612b0b57600080fd5b60008111612b1857600080fd5b8060008060405160200180807f7265717569726564426c6f636b436f6e6669726d6174696f6e73000000000000815250601a0190506040516020818303038152906040526040518082805190602001908083835b60208310612b8b5780518252601f199092019160209182019101612b6c565b51815160001960209485036101000a019081169019919091161790526040805194909201849003909320865285830196909652509284016000209490945550815184815291517f4fb76205cd57c896b21511d2114137d8e901b4ccd659e1a0f97d6306795264fb9350918290030190a150565b612c06612128565b600160a060020a03163314612c1a57600080fd5b8060008060405160200180807f6461696c794c696d697400000000000000000000000000000000000000000000815250600a0190506040516020818303038152906040526040518082805190602001908083835b60208310612c8d5780518252601f199092019160209182019101612c6e565b51815160001960209485036101000a019081169019919091161790526040805194909201849003909320865285830196909652509284016000209490945550815184815291517fad4123ae17c414d9c6d2fec478b402e6b01856cc250fd01fbfd252fda0089d3c9350918290030190a150565b60006002600060405160200180807f6665655265636569766572000000000000000000000000000000000000000000815250600b01905060405160208183030381529060405260405180828051906020019080838360208310610c745780518252601f199092019160209182019101610c55565b600080600080612d82611db2565b925061271091506112878261127b61126e61145a565b612da0612128565b600160a060020a03163314612db457600080fd5b60008111612dc157600080fd5b8060008060405160200180807f676173507269636500000000000000000000000000000000000000000000000081525060080190506040516020818303038152906040526040518082805190602001908083835b60208310612e345780518252601f199092019160209182019101612e15565b51815160001960209485036101000a019081169019919091161790526040805194909201849003909320865285830196909652509284016000209490945550815184815291517f52264b89e0fceafb26e79fd49ef8a366eb6297483bf4035b027f0c99a7ad512e9350918290030190a150565b6000612710612036612ecb8261127b612ebe611f80565b879063ffffffff613df516565b849063ffffffff61442c16565b612ee0612128565b600160a060020a03163314612ef457600080fd5b612efc611a82565b8110612f0757600080fd5b8060008060405160200180807f6d617850657254780000000000000000000000000000000000000000000000008152506008019050604051602081830303815290604052604051808280519060200190808383602083106127cc5780518252601f1990920191602091820191016127ad565b600080600060405160200180807f6465706f73697446656550657263656e74000000000000000000000000000000815250601101905060405160208183030381529060405260405180828051906020019080838360208310610a605780518252601f199092019160209182019101610a41565b600030600160a060020a031663025313a26040518163ffffffff1660e060020a028152600401602060405180830381600087803b1580156120f757600080fd5b600080600060405160200180807f6d696e5065725478000000000000000000000000000000000000000000000000815250600801905060405160208183030381529060405260405180828051906020019080838360208310610a605780518252601f199092019160209182019101610a41565b60006130a9610f03565b156130b357600080fd5b600160a060020a038c16158015906130cf57506130cf8c6149ec565b15156130da57600080fd5b600088116130e757600080fd5b600087116130f457600080fd5b6000891180156131035750888a115b801561310e5750898b115b151561311957600080fd5b84841061312557600080fd5b600160a060020a038316151561313a57600080fd5b6127108210613193576040805160e560020a62461bcd02815260206004820152601360248201527f496e76616c6964206665652070657263656e7400000000000000000000000000604482015290519081900360640190fd5b8b6002600060405160200180807f76616c696461746f72436f6e747261637400000000000000000000000000000081525060110190506040516020818303038152906040526040518082805190602001908083835b602083106132075780518252601f1990920191602091820191016131e8565b51815160209384036101000a60001901801990921691161790526040805192909401829003909120865285810196909652509283016000908120805473ffffffffffffffffffffffffffffffffffffffff1916600160a060020a039790971696909617909555505080517f6465706c6f7965644174426c6f636b0000000000000000000000000000000000818401528151600f818303018152602f90910191829052805143949384939182918401908083835b602083106132d95780518252601f1990920191602091820191016132ba565b51815160209384036101000a6000190180199092169116179052604080519290940182900390912086528581019690965250928301600090812095909555505080517f6461696c794c696d697400000000000000000000000000000000000000000000818401528151600a818303018152602a9091019182905280518f949384939182918401908083835b602083106133835780518252601f199092019160209182019101613364565b51815160209384036101000a6000190180199092169116179052604080519290940182900390912086528581019690965250928301600090812095909555505080517f6d61785065725478000000000000000000000000000000000000000000000000818401528151600881830301815260289091019182905280518e949384939182918401908083835b6020831061342d5780518252601f19909201916020918201910161340e565b51815160209384036101000a6000190180199092169116179052604080519290940182900390912086528581019690965250928301600090812095909555505080517f6d696e5065725478000000000000000000000000000000000000000000000000818401528151600881830301815260289091019182905280518d949384939182918401908083835b602083106134d75780518252601f1990920191602091820191016134b8565b51815160209384036101000a6000190180199092169116179052604080519290940182900390912086528581019690965250928301600090812095909555505080517f6761735072696365000000000000000000000000000000000000000000000000818401528151600881830301815260289091019182905280518c949384939182918401908083835b602083106135815780518252601f199092019160209182019101613562565b51815160209384036101000a6000190180199092169116179052604080519290940182900390912086528581019690965250928301600090812095909555505080517f7265717569726564426c6f636b436f6e6669726d6174696f6e73000000000000818401528151601a818303018152603a9091019182905280518b949384939182918401908083835b6020831061362b5780518252601f19909201916020918201910161360c565b51815160209384036101000a6000190180199092169116179052604080519290940182900390912086528581019690965250928301600090812095909555505080517f657865637574696f6e4461696c794c696d6974000000000000000000000000008184015281516013818303018152603390910191829052805189949384939182918401908083835b602083106136d55780518252601f1990920191602091820191016136b6565b51815160209384036101000a6000190180199092169116179052604080519290940182900390912086528581019690965250928301600090812095909555505080517f657865637574696f6e4d617850657254780000000000000000000000000000008184015281516011818303018152603190910191829052805188949384939182918401908083835b6020831061377f5780518252601f199092019160209182019101613760565b51815160209384036101000a6000190180199092169116179052604080519290940182900390912086528581019690965250928301600090812095909555505080517f66656550657263656e7400000000000000000000000000000000000000000000818401528151600a818303018152602a90910191829052805186949384939182918401908083835b602083106138295780518252601f19909201916020918201910161380a565b51815160209384036101000a60001901801990921691161790526040805192909401829003909120865285019590955292909201600020939093555061387291508490506149f4565b61387c6001614b1c565b61388586614bdd565b61388d610f03565b9c9b505050505050505050505050565b6000806138af8361200a612a666111bf565b9050806138ba611a82565b101580156138cf57506138cb613b7a565b8311155b801561203657506138de61302c565b9092101592915050565b6138f0612128565b600160a060020a0316331461390457600080fd5b806002600060405160200180807f6665655265636569766572000000000000000000000000000000000000000000815250600b0190506040516020818303038152906040526040518082805190602001908083835b602083106139785780518252601f199092019160209182019101613959565b51815160209384036101000a6000190180199092169116179052604080519290940182900390912086528581019690965250928301600020805473ffffffffffffffffffffffffffffffffffffffff1916600160a060020a03968716179055505080519284168352517f776861b3962c8a36ffbbbc1949c17d4ab1bc5292f101850d6f3b375c5b80719f9281900390910190a150565b613a16612128565b600160a060020a03163314613a2a57600080fd5b613a32611348565b8110613a3d57600080fd5b8060008060405160200180807f657865637574696f6e4d617850657254780000000000000000000000000000008152506011019050604051602081830303815290604052604051808280519060200190808383602083106127cc5780518252601f1990920191602091820191016127ad565b613ab7612128565b600160a060020a03163314613acb57600080fd5b600160a060020a0381161515613ae057600080fd5b613ae9816149f4565b50565b613af4612128565b600160a060020a03163314613b0857600080fd5b8060008060405160200180807f6465706f73697446697865644665650000000000000000000000000000000000815250600f01905060405160208183030381529060405260405180828051906020019080838360208310610d4c5780518252601f199092019160209182019101610d2d565b600080600060405160200180807f6d61785065725478000000000000000000000000000000000000000000000000815250600801905060405160208183030381529060405260405180828051906020019080838360208310610a605780518252601f199092019160209182019101610a41565b600080600060405160200180807f6761735072696365000000000000000000000000000000000000000000000000815250600801905060405160208183030381529060405260405180828051906020019080838360208310610a605780518252601f199092019160209182019101610a41565b7f80000000000000000000000000000000000000000000000000000000000000009081161490565b6060600360008360405160200180807f7369676e61747572657300000000000000000000000000000000000000000000815250600a0182600019166000191681526020019150506040516020818303038152906040526040518082805190602001908083835b60208310613d0d5780518252601f199092019160209182019101613cee565b6001836020036101000a0380198251168184511680821785525050505050509050019150506040518091039020600019166000191681526020019081526020016000208054600181600116156101000203166002900480601f016020809104026020016040519081016040528092919081815260200182805460018160011615610100020316600290048015613de45780601f10613db957610100808354040283529160200191613de4565b820191906000526020600020905b815481529060010190602001808311613dc757829003601f168201915b50505050509050919050565b606890565b600080831515613e085760009150610bf8565b50828202828482811515613e1857fe5b041461203657fe5b6000808284811515613e2e57fe5b04949350505050565b6060600360008360405160200180807f6d65737361676573000000000000000000000000000000000000000000000000815250600801826000191660001916815260200191505060405160208183030381529060405260405180828051906020019080838360208310613d0d5780518252601f199092019160209182019101613cee565b6000613ec5613df0565b8251149050919050565b60008060008085516041141515613ee557600080fd5b5050506020830151604084015160608501516001613f0286614c77565b60408051600080825260208083018085529490945260ff7f0100000000000000000000000000000000000000000000000000000000000000870416828401526060820188905260808201879052915160a08083019493601f198301938390039091019190865af1158015613f7a573d6000803e3d6000fd5b5050604051601f190151979650505050505050565b80600360008460405160200180807f6d6573736167657300000000000000000000000000000000000000000000000081525060080182600019166000191681526020019150506040516020818303038152906040526040518082805190602001908083835b602083106140135780518252601f199092019160209182019101613ff4565b51815160001960209485036101000a01908116901991909116179052604080519490920184900390932086528583019690965250929093016000208451614061959194509201919050615057565b505050565b80600460008460405160200180807f6d657373616765735369676e6564000000000000000000000000000000000000815250600e0182600019166000191681526020019150506040516020818303038152906040526040518082805190602001908083835b602083106140ea5780518252601f1990920191602091820191016140cb565b51815160209384036101000a60001901801990921691161790526040805192909401829003909120865285019590955292909201600020805460ff1916941515949094179093555050505050565b80600360008460405160200180807f7369676e61747572657300000000000000000000000000000000000000000000815250600a018260001916600019168152602001915050604051602081830303815290604052604051808280519060200190808383602083106140135780518252601f199092019160209182019101613ff4565b806000808460405160200180807f6e756d4d657373616765735369676e656400000000000000000000000000000081525060110182600019166000191681526020019150506040516020818303038152906040526040518082805190602001908083835b6020831061423e5780518252601f19909201916020918201910161421f565b51815160209384036101000a60001901801990921691161790526040805192909401829003909120865285019590955292909201600020939093555050505050565b7f80000000000000000000000000000000000000000000000000000000000000001790565b600080600260008460405160200180807f74784f75744f664c696d6974526563697069656e74000000000000000000000081525060150182600019166000191681526020019150506040516020818303038152906040526040518082805190602001908083835b6020831061432b5780518252601f19909201916020918201910161430c565b51815160209384036101000a600019018019909216911617905260408051929094018290039091208652858101969096525092830160009081205484517f74784f75744f664c696d697456616c75650000000000000000000000000000008188015260318082018b9052865180830390910181526051909101958690528051600160a060020a0390921698509195869592945091925082918401908083835b602083106143e95780518252601f1990920191602091820191016143ca565b51815160209384036101000a6000190180199092169116179052604080519290940182900390912086528501959095529290920160002054949694955050505050565b60008282111561443857fe5b50900390565b8060008060405160200180807f6f75744f664c696d6974416d6f756e74000000000000000000000000000000008152506010019050604051602081830303815290604052604051808280519060200190808383602083106127cc5780518252601f1990920191602091820191016127ad565b80600460008460405160200180807f6669786564417373657473000000000000000000000000000000000000000000815250600b018260001916600019168152602001915050604051602081830303815290604052604051808280519060200190808383602083106140ea5780518252601f1990920191602091820191016140cb565b60008282018381101561203657fe5b600061145482611ff3565b80600460008460405160200180807f61666669726d6174696f6e735369676e656400000000000000000000000000008152506012018260001916600019168152602001915050604051602081830303815290604052604051808280519060200190808383602083106140ea5780518252601f1990920191602091820191016140cb565b806000808460405160200180807f6e756d41666669726d6174696f6e735369676e6564000000000000000000000081525060150182600019166000191681526020019150506040516020818303038152906040526040518082805190602001908083836020831061423e5780518252601f19909201916020918201910161421f565b60008060006146766146626111bf565b6146718661200a6120056111bf565b614e3c565b61467f8461124a565b915081841161472f57614690610bff565b600160a060020a03166340c10f196146a6612d00565b866040518363ffffffff1660e060020a0281526004018083600160a060020a0316600160a060020a0316815260200182815260200192505050602060405180830381600087803b1580156146f957600080fd5b505af115801561470d573d6000803e3d6000fd5b505050506040513d602081101561472357600080fd5b50600193506148879050565b81156147d35761473d610bff565b600160a060020a03166340c10f19614753612d00565b846040518363ffffffff1660e060020a0281526004018083600160a060020a0316600160a060020a0316815260200182815260200192505050602060405180830381600087803b1580156147a657600080fd5b505af11580156147ba573d6000803e3d6000fd5b505050506040513d60208110156147d057600080fd5b50505b6147e3848363ffffffff61442c16565b90508015614882576147f3610bff565b600160a060020a03166340c10f1986836040518363ffffffff1660e060020a0281526004018083600160a060020a0316600160a060020a0316815260200182815260200192505050602060405180830381600087803b15801561485557600080fd5b505af1158015614869573d6000803e3d6000fd5b505050506040513d602081101561487f57600080fd5b50505b600192505b505092915050565b60008061489b836142a5565b9092509050600160a060020a0382161580156148b5575080155b15156148c057600080fd5b6148cf611a218561200a6126a3565b6148da858585614eb6565b60408051600160a060020a03871681526020810186905280820185905290517f159c0773f543f1e17d5e78327702770947055eb4e871b529bbc78bc9fde456929181900360600190a15050505050565b806000808460405160200180807f746f74616c5370656e74506572446179000000000000000000000000000000008152506010018281526020019150506040516020818303038152906040526040518082805190602001908083836020831061423e5780518252601f19909201916020918201910161421f565b60408051600160a060020a03841681526020810183905281517f127650bcfb0ba017401abe4931453a405140a8fd36fece67bae2db174d3fdd63929181900390910190a15050565b6000903b1190565b7f8be0079c531659141344cd1fd0a4f28419497f9722a3daafe3b4186f6b6457e0614a1d612128565b60408051600160a060020a03928316815291841660208301528051918290030190a1806002600060405160200180807f6f776e657200000000000000000000000000000000000000000000000000000081525060050190506040516020818303038152906040526040518082805190602001908083835b60208310614ab35780518252601f199092019160209182019101614a94565b51815160209384036101000a60001901801990921691161790526040805192909401829003909120865285019590955292909201600020805473ffffffffffffffffffffffffffffffffffffffff1916600160a060020a03959095169490941790935550505050565b806004600060405160200180807f6973496e697469616c697a656400000000000000000000000000000000000000815250600d0190506040516020818303038152906040526040518082805190602001908083835b60208310614b905780518252601f199092019160209182019101614b71565b51815160209384036101000a60001901801990921691161790526040805192909401829003909120865285019590955292909201600020805460ff19169415159490941790935550505050565b600160a060020a03811615801590614bf95750614bf9816149ec565b1515614c0457600080fd5b806002600060405160200180807f657263363737746f6b656e000000000000000000000000000000000000000000815250600b01905060405160208183030381529060405260405180828051906020019080838360208310614ab35780518252601f199092019160209182019101614a94565b604080518082018252601a81527f19457468657265756d205369676e6564204d6573736167653a0a000000000000602080830191825283518085018552600381527f313034000000000000000000000000000000000000000000000000000000000081830152935183516000959385938593899391019182918083835b60208310614d135780518252601f199092019160209182019101614cf4565b51815160209384036101000a600019018019909216911617905286519190930192860191508083835b60208310614d5b5780518252601f199092019160209182019101614d3c565b51815160209384036101000a600019018019909216911617905285519190930192850191508083835b60208310614da35780518252601f199092019160209182019101614d84565b6001836020036101000a03801982511681845116808217855250505050505090500193505050506040516020818303038152906040526040518082805190602001908083835b60208310614e085780518252601f199092019160209182019101614de9565b5181516020939093036101000a60001901801990911692169190911790526040519201829003909120979650505050505050565b806000808460405160200180807f746f74616c4578656375746564506572446179000000000000000000000000008152506013018281526020019150506040516020818303038152906040526040518082805190602001908083836020831061423e5780518252601f19909201916020918201910161421f565b82600260008360405160200180807f74784f75744f664c696d6974526563697069656e74000000000000000000000081525060150182600019166000191681526020019150506040516020818303038152906040526040518082805190602001908083835b60208310614f3a5780518252601f199092019160209182019101614f1b565b51815160209384036101000a60001901801990921691161790526040805192909401829003909120865285810196909652509283016000908120805473ffffffffffffffffffffffffffffffffffffffff1916600160a060020a039790971696909617909555505080517f74784f75744f664c696d697456616c756500000000000000000000000000000081840152603180820186905282518083039091018152605190910191829052805186949384939182918401908083835b602083106150145780518252601f199092019160209182019101614ff5565b51815160209384036101000a6000190180199092169116179052604080519290940182900390912086528501959095529290920160002093909355505050505050565b828054600181600116156101000203166002900490600052602060002090601f016020900481019282601f1061509857805160ff19168380011785556150c5565b828001600101855582156150c5579182015b828111156150c55782518255916020019190600101906150aa565b506150d19291506150d5565b5090565b610a9e91905b808211156150d157600081556001016150db5600a165627a7a72305820797bac7c1f9d1ca4f565b9973dbdcddba147a23dfed6b9827c6c6b4fa57c6eb40029",
  "source": "\n\n\npragma solidity 0.4.24;\n\nimport \"../erc20_to_erc20/HomeBridgeErcToErc.sol\";\nimport \"../DepositWithdrawFeeManager.sol\";\n\ncontract HomeBridgeErcToErcWithFee is EternalStorage, HomeBridgeErcToErc, DepositWithdrawFeeManager {\n    function onTokenTransfer(address _from, uint256 _value, bytes _data) external returns(bool) {\n        require(msg.sender == address(erc677token()), \"Unkown token\");\n        require(withinLimit(_value), \"Transfer limit exceeded.\");\n        require(_value > withdrawFixedFee(), \"Value is less than fee\");\n        uint256 fee = withdrawFee(_value);\n        if (fee != 0) {\n            require(erc677token().transfer(feeReceiver(), fee), \"failed to transfer fee\");\n        }\n        uint256 value = _value.sub(fee);\n\n        setTotalSpentPerDay(getCurrentDay(), totalSpentPerDay(getCurrentDay()).add(value));\n        erc677token().burn(value);\n        fireEventOnTokenTransfer(_from, value);\n        return true;\n    }\n\n    function onExecuteAffirmation(address _recipient, uint256 _value) internal returns(bool) {\n        setTotalExecutedPerDay(getCurrentDay(), totalExecutedPerDay(getCurrentDay()).add(_value));\n\n        uint256 fee = depositFee(_value);\n        if (_value <= fee) {\n            erc677token().mint(feeReceiver(), _value);\n            return true;\n        }\n\n        if (fee != 0) {\n            erc677token().mint(feeReceiver(), fee);\n        }\n\n        uint256 value = _value.sub(fee);\n        if (value != 0) {\n            erc677token().mint(_recipient, value);\n        }\n\n        return true;\n    }\n}\n",
  "sourcePath": "/home/kevin/tt/thunder_bridge/contracts/contracts/upgradeable_contracts/erc20_to_erc20/HomeBridgeErcToErcWithFee.sol",
  "compiler": {
    "name": "solc",
    "version": "0.4.24+commit.e67f0147.Emscripten.clang"
  },
  "schemaVersion": "3.2.0",
  "updatedAt": "2020-08-27T08:23:14.115Z",
  "devdoc": {
    "methods": {
      "feePercent()": {
        "details": "Returns current fee percent. It has 2 decimal places. e.g. value 1337 has to be interpreted as 13.37%",
        "return": "fee percent."
      },
      "owner()": {
        "details": "Tells the address of the owner",
        "return": "the address of the owner"
      },
      "setFeePercent(uint256)": {
        "details": "Sets current fee percent. It has 2 decimal places. e.g. value 1337 has to be interpreted as 13.37%",
        "params": {
          "_feePercent": "Fee percent."
        }
      },
      "transferOwnership(address)": {
        "details": "Allows the current owner to transfer control of the contract to a newOwner.",
        "params": {
          "newOwner": "the address to transfer ownership to."
        }
      }
    }
  },
  "userdoc": {
    "methods": {}
  }
}